{
  "contractName": "Ballot",
  "abi": [
    {
      "inputs": [
        {
          "internalType": "string[]",
          "name": "_proposalNames",
          "type": "string[]"
        },
        {
          "internalType": "string",
          "name": "_description",
          "type": "string"
        },
        {
          "internalType": "bytes",
          "name": "_attachedDoc",
          "type": "bytes"
        },
        {
          "internalType": "uint256",
          "name": "_startDate",
          "type": "uint256"
        },
        {
          "internalType": "uint256",
          "name": "_endDate",
          "type": "uint256"
        }
      ],
      "payable": false,
      "stateMutability": "nonpayable",
      "type": "constructor"
    },
    {
      "constant": true,
      "inputs": [],
      "name": "attachedDoc",
      "outputs": [
        {
          "internalType": "bytes",
          "name": "",
          "type": "bytes"
        }
      ],
      "payable": false,
      "stateMutability": "view",
      "type": "function"
    },
    {
      "constant": true,
      "inputs": [],
      "name": "chairperson",
      "outputs": [
        {
          "internalType": "address",
          "name": "",
          "type": "address"
        }
      ],
      "payable": false,
      "stateMutability": "view",
      "type": "function"
    },
    {
      "constant": true,
      "inputs": [],
      "name": "description",
      "outputs": [
        {
          "internalType": "string",
          "name": "",
          "type": "string"
        }
      ],
      "payable": false,
      "stateMutability": "view",
      "type": "function"
    },
    {
      "constant": true,
      "inputs": [],
      "name": "endDate",
      "outputs": [
        {
          "internalType": "uint256",
          "name": "",
          "type": "uint256"
        }
      ],
      "payable": false,
      "stateMutability": "view",
      "type": "function"
    },
    {
      "constant": true,
      "inputs": [
        {
          "internalType": "uint256",
          "name": "",
          "type": "uint256"
        }
      ],
      "name": "proposals",
      "outputs": [
        {
          "internalType": "string",
          "name": "name",
          "type": "string"
        },
        {
          "internalType": "uint256",
          "name": "voteCount",
          "type": "uint256"
        }
      ],
      "payable": false,
      "stateMutability": "view",
      "type": "function"
    },
    {
      "constant": true,
      "inputs": [],
      "name": "proposalsCount",
      "outputs": [
        {
          "internalType": "uint256",
          "name": "",
          "type": "uint256"
        }
      ],
      "payable": false,
      "stateMutability": "view",
      "type": "function"
    },
    {
      "constant": true,
      "inputs": [],
      "name": "startDate",
      "outputs": [
        {
          "internalType": "uint256",
          "name": "",
          "type": "uint256"
        }
      ],
      "payable": false,
      "stateMutability": "view",
      "type": "function"
    },
    {
      "constant": true,
      "inputs": [],
      "name": "state",
      "outputs": [
        {
          "internalType": "enum Ballot.State",
          "name": "",
          "type": "uint8"
        }
      ],
      "payable": false,
      "stateMutability": "view",
      "type": "function"
    },
    {
      "constant": true,
      "inputs": [
        {
          "internalType": "address",
          "name": "",
          "type": "address"
        }
      ],
      "name": "voters",
      "outputs": [
        {
          "internalType": "uint256",
          "name": "weight",
          "type": "uint256"
        },
        {
          "internalType": "bool",
          "name": "voted",
          "type": "bool"
        },
        {
          "internalType": "address",
          "name": "delegate",
          "type": "address"
        },
        {
          "internalType": "uint256",
          "name": "vote",
          "type": "uint256"
        }
      ],
      "payable": false,
      "stateMutability": "view",
      "type": "function"
    },
    {
      "constant": false,
      "inputs": [
        {
          "internalType": "address",
          "name": "voter",
          "type": "address"
        }
      ],
      "name": "giveRightToVote",
      "outputs": [],
      "payable": false,
      "stateMutability": "nonpayable",
      "type": "function"
    },
    {
      "constant": false,
      "inputs": [
        {
          "internalType": "address",
          "name": "to",
          "type": "address"
        }
      ],
      "name": "delegate",
      "outputs": [],
      "payable": false,
      "stateMutability": "nonpayable",
      "type": "function"
    },
    {
      "constant": false,
      "inputs": [
        {
          "internalType": "uint256",
          "name": "proposal",
          "type": "uint256"
        }
      ],
      "name": "vote",
      "outputs": [],
      "payable": false,
      "stateMutability": "nonpayable",
      "type": "function"
    },
    {
      "constant": true,
      "inputs": [],
      "name": "winningProposal",
      "outputs": [
        {
          "internalType": "uint256",
          "name": "winningProposal_",
          "type": "uint256"
        }
      ],
      "payable": false,
      "stateMutability": "view",
      "type": "function"
    },
    {
      "constant": true,
      "inputs": [],
      "name": "winnerName",
      "outputs": [
        {
          "internalType": "string",
          "name": "winnerName_",
          "type": "string"
        }
      ],
      "payable": false,
      "stateMutability": "view",
      "type": "function"
    },
    {
      "constant": false,
      "inputs": [],
      "name": "close",
      "outputs": [],
      "payable": false,
      "stateMutability": "nonpayable",
      "type": "function"
    }
  ],
  "bytecode": "0x60806040523480156200001157600080fd5b5060405162001c3438038062001c3483398181016040526200003791908101906200052e565b32600460006101000a81548173ffffffffffffffffffffffffffffffffffffffff021916908373ffffffffffffffffffffffffffffffffffffffff160217905550600160056000600460009054906101000a900473ffffffffffffffffffffffffffffffffffffffff1673ffffffffffffffffffffffffffffffffffffffff1673ffffffffffffffffffffffffffffffffffffffff168152602001908152602001600020600001819055508360009080519060200190620000fa929190620001c9565b50816001819055508060028190555082600390805190602001906200012192919062000250565b5060008090505b8551811015620001bd5760076000815480929190600101919050555060405180604001604052808783815181106200015c57fe5b6020026020010151815260200160008152506006600060075481526020019081526020016000206000820151816000019080519060200190620001a1929190620002d7565b5060208201518160010155905050808060010191505062000128565b50505050505062000733565b828054600181600116156101000203166002900490600052602060002090601f016020900481019282601f106200020c57805160ff19168380011785556200023d565b828001600101855582156200023d579182015b828111156200023c5782518255916020019190600101906200021f565b5b5090506200024c91906200035e565b5090565b828054600181600116156101000203166002900490600052602060002090601f016020900481019282601f106200029357805160ff1916838001178555620002c4565b82800160010185558215620002c4579182015b82811115620002c3578251825591602001919060010190620002a6565b5b509050620002d391906200035e565b5090565b828054600181600116156101000203166002900490600052602060002090601f016020900481019282601f106200031a57805160ff19168380011785556200034b565b828001600101855582156200034b579182015b828111156200034a5782518255916020019190600101906200032d565b5b5090506200035a91906200035e565b5090565b6200038391905b808211156200037f57600081600090555060010162000365565b5090565b90565b600082601f8301126200039857600080fd5b8151620003af620003a98262000629565b620005fb565b9150818183526020840193506020810190508360005b83811015620003f95781518601620003de88826200045f565b845260208401935060208301925050600181019050620003c5565b5050505092915050565b600082601f8301126200041557600080fd5b81516200042c620004268262000652565b620005fb565b915080825260208301602083018583830111156200044957600080fd5b62000456838284620006e3565b50505092915050565b600082601f8301126200047157600080fd5b81516200048862000482826200067f565b620005fb565b91508082526020830160208301858383011115620004a557600080fd5b620004b2838284620006e3565b50505092915050565b600082601f830112620004cd57600080fd5b8151620004e4620004de82620006ac565b620005fb565b915080825260208301602083018583830111156200050157600080fd5b6200050e838284620006e3565b50505092915050565b600081519050620005288162000719565b92915050565b600080600080600060a086880312156200054757600080fd5b600086015167ffffffffffffffff8111156200056257600080fd5b620005708882890162000386565b955050602086015167ffffffffffffffff8111156200058e57600080fd5b6200059c88828901620004bb565b945050604086015167ffffffffffffffff811115620005ba57600080fd5b620005c88882890162000403565b9350506060620005db8882890162000517565b9250506080620005ee8882890162000517565b9150509295509295909350565b6000604051905081810181811067ffffffffffffffff821117156200061f57600080fd5b8060405250919050565b600067ffffffffffffffff8211156200064157600080fd5b602082029050602081019050919050565b600067ffffffffffffffff8211156200066a57600080fd5b601f19601f8301169050602081019050919050565b600067ffffffffffffffff8211156200069757600080fd5b601f19601f8301169050602081019050919050565b600067ffffffffffffffff821115620006c457600080fd5b601f19601f8301169050602081019050919050565b6000819050919050565b60005b8381101562000703578082015181840152602081019050620006e6565b8381111562000713576000848401525b50505050565b6200072481620006d9565b81146200073057600080fd5b50565b6114f180620007436000396000f3fe608060405234801561001057600080fd5b50600436106100f55760003560e01c8063609ff1bd11610097578063a3ec138d11610066578063a3ec138d1461023d578063c19d93fb14610270578063c24a0f8b1461028e578063e2ba53f0146102ac576100f5565b8063609ff1bd146101c75780637284e416146101e55780639bb46155146102035780639e7b8d6114610221576100f5565b80630b97bc86116100d35780630b97bc86146101655780632e4176cf1461018357806343d726d6146101a15780635c19a95c146101ab576100f5565b80630121b93f146100fa578063013cf08b146101165780630a9f46ad14610147575b600080fd5b610114600480360361010f9190810190610df7565b6102ca565b005b610130600480360361012b9190810190610df7565b6103f9565b60405161013e9291906111ef565b60405180910390f35b61014f6104b5565b60405161015c919061131f565b60405180910390f35b61016d6104bb565b60405161017a919061131f565b60405180910390f35b61018b6104c1565b6040516101989190611153565b60405180910390f35b6101a96104e7565b005b6101c560048036036101c09190810190610dce565b61059d565b005b6101cf610918565b6040516101dc919061131f565b60405180910390f35b6101ed61097b565b6040516101fa91906111ab565b60405180910390f35b61020b610a19565b604051610218919061116e565b60405180910390f35b61023b60048036036102369190810190610dce565b610ab7565b005b61025760048036036102529190810190610dce565b610c71565b604051610267949392919061133a565b60405180910390f35b610278610cce565b6040516102859190611190565b60405180910390f35b610296610ce1565b6040516102a3919061131f565b60405180910390f35b6102b4610ce7565b6040516102c191906111cd565b60405180910390f35b6000600560003373ffffffffffffffffffffffffffffffffffffffff1673ffffffffffffffffffffffffffffffffffffffff1681526020019081526020016000209050600081600001541415610355576040517f08c379a000000000000000000000000000000000000000000000000000000000815260040161034c9061121f565b60405180910390fd5b8060010160009054906101000a900460ff16156103a7576040517f08c379a000000000000000000000000000000000000000000000000000000000815260040161039e9061123f565b60405180910390fd5b60018160010160006101000a81548160ff021916908315150217905550818160020181905550806000015460066000848152602001908152602001600020600101600082825401925050819055505050565b6006602052806000526040600020600091509050806000018054600181600116156101000203166002900480601f0160208091040260200160405190810160405280929190818152602001828054600181600116156101000203166002900480156104a55780601f1061047a576101008083540402835291602001916104a5565b820191906000526020600020905b81548152906001019060200180831161048857829003601f168201915b5050505050908060010154905082565b60075481565b60015481565b600460009054906101000a900473ffffffffffffffffffffffffffffffffffffffff1681565b600460009054906101000a900473ffffffffffffffffffffffffffffffffffffffff1673ffffffffffffffffffffffffffffffffffffffff163373ffffffffffffffffffffffffffffffffffffffff1614610577576040517f08c379a000000000000000000000000000000000000000000000000000000000815260040161056e906112bf565b60405180910390fd5b6003600860006101000a81548160ff0219169083600381111561059657fe5b0217905550565b6000600560003373ffffffffffffffffffffffffffffffffffffffff1673ffffffffffffffffffffffffffffffffffffffff16815260200190815260200160002090508060010160009054906101000a900460ff1615610632576040517f08c379a00000000000000000000000000000000000000000000000000000000081526004016106299061125f565b60405180910390fd5b3373ffffffffffffffffffffffffffffffffffffffff168273ffffffffffffffffffffffffffffffffffffffff1614156106a1576040517f08c379a0000000000000000000000000000000000000000000000000000000008152600401610698906112ff565b60405180910390fd5b5b600073ffffffffffffffffffffffffffffffffffffffff16600560008473ffffffffffffffffffffffffffffffffffffffff1673ffffffffffffffffffffffffffffffffffffffff16815260200190815260200160002060010160019054906101000a900473ffffffffffffffffffffffffffffffffffffffff1673ffffffffffffffffffffffffffffffffffffffff161461081157600560008373ffffffffffffffffffffffffffffffffffffffff1673ffffffffffffffffffffffffffffffffffffffff16815260200190815260200160002060010160019054906101000a900473ffffffffffffffffffffffffffffffffffffffff1691503373ffffffffffffffffffffffffffffffffffffffff168273ffffffffffffffffffffffffffffffffffffffff16141561080c576040517f08c379a00000000000000000000000000000000000000000000000000000000081526004016108039061129f565b60405180910390fd5b6106a2565b60018160010160006101000a81548160ff021916908315150217905550818160010160016101000a81548173ffffffffffffffffffffffffffffffffffffffff021916908373ffffffffffffffffffffffffffffffffffffffff1602179055506000600560008473ffffffffffffffffffffffffffffffffffffffff1673ffffffffffffffffffffffffffffffffffffffff16815260200190815260200160002090508060010160009054906101000a900460ff16156108fc578160000154600660008360020154815260200190815260200160002060010160008282540192505081905550610913565b816000015481600001600082825401925050819055505b505050565b6000806000905060008090505b600754811161097657816006600083815260200190815260200160002060010154111561096957600660008281526020019081526020016000206001015491508092505b8080600101915050610925565b505090565b60008054600181600116156101000203166002900480601f016020809104026020016040519081016040528092919081815260200182805460018160011615610100020316600290048015610a115780601f106109e657610100808354040283529160200191610a11565b820191906000526020600020905b8154815290600101906020018083116109f457829003601f168201915b505050505081565b60038054600181600116156101000203166002900480601f016020809104026020016040519081016040528092919081815260200182805460018160011615610100020316600290048015610aaf5780601f10610a8457610100808354040283529160200191610aaf565b820191906000526020600020905b815481529060010190602001808311610a9257829003601f168201915b505050505081565b600460009054906101000a900473ffffffffffffffffffffffffffffffffffffffff1673ffffffffffffffffffffffffffffffffffffffff163373ffffffffffffffffffffffffffffffffffffffff1614610b47576040517f08c379a0000000000000000000000000000000000000000000000000000000008152600401610b3e9061127f565b60405180910390fd5b600560008273ffffffffffffffffffffffffffffffffffffffff1673ffffffffffffffffffffffffffffffffffffffff16815260200190815260200160002060010160009054906101000a900460ff1615610bd7576040517f08c379a0000000000000000000000000000000000000000000000000000000008152600401610bce906112df565b60405180910390fd5b6000600560008373ffffffffffffffffffffffffffffffffffffffff1673ffffffffffffffffffffffffffffffffffffffff1681526020019081526020016000206000015414610c2657600080fd5b6001600560008373ffffffffffffffffffffffffffffffffffffffff1673ffffffffffffffffffffffffffffffffffffffff1681526020019081526020016000206000018190555050565b60056020528060005260406000206000915090508060000154908060010160009054906101000a900460ff16908060010160019054906101000a900473ffffffffffffffffffffffffffffffffffffffff16908060020154905084565b600860009054906101000a900460ff1681565b60025481565b606060066000610cf5610918565b81526020019081526020016000206000018054600181600116156101000203166002900480601f016020809104026020016040519081016040528092919081815260200182805460018160011615610100020316600290048015610d9a5780601f10610d6f57610100808354040283529160200191610d9a565b820191906000526020600020905b815481529060010190602001808311610d7d57829003601f168201915b5050505050905090565b600081359050610db381611480565b92915050565b600081359050610dc881611497565b92915050565b600060208284031215610de057600080fd5b6000610dee84828501610da4565b91505092915050565b600060208284031215610e0957600080fd5b6000610e1784828501610db9565b91505092915050565b610e29816113c2565b82525050565b610e38816113d4565b82525050565b6000610e498261137f565b610e5381856113a0565b9350610e6381856020860161142f565b610e6c81611462565b840191505092915050565b610e808161141d565b82525050565b6000610e9182611395565b610e9b81856113b1565b9350610eab81856020860161142f565b610eb481611462565b840191505092915050565b6000610eca8261138a565b610ed481856113b1565b9350610ee481856020860161142f565b610eed81611462565b840191505092915050565b6000610f056014836113b1565b91507f486173206e6f20726967687420746f20766f74650000000000000000000000006000830152602082019050919050565b6000610f45600e836113b1565b91507f416c726561647920766f7465642e0000000000000000000000000000000000006000830152602082019050919050565b6000610f856012836113b1565b91507f596f7520616c726561647920766f7465642e00000000000000000000000000006000830152602082019050919050565b6000610fc56028836113b1565b91507f4f6e6c79206368616972706572736f6e2063616e20676976652072696768742060008301527f746f20766f74652e0000000000000000000000000000000000000000000000006020830152604082019050919050565b600061102b6019836113b1565b91507f466f756e64206c6f6f7020696e2064656c65676174696f6e2e000000000000006000830152602082019050919050565b600061106b602b836113b1565b91507f596f7520617265206e6f7420617574686f72697a656420746f2063617272792060008301527f7468697320616374696f6e0000000000000000000000000000000000000000006020830152604082019050919050565b60006110d16018836113b1565b91507f54686520766f74657220616c726561647920766f7465642e00000000000000006000830152602082019050919050565b6000611111601e836113b1565b91507f53656c662d64656c65676174696f6e20697320646973616c6c6f7765642e00006000830152602082019050919050565b61114d81611413565b82525050565b60006020820190506111686000830184610e20565b92915050565b600060208201905081810360008301526111888184610e3e565b905092915050565b60006020820190506111a56000830184610e77565b92915050565b600060208201905081810360008301526111c58184610ebf565b905092915050565b600060208201905081810360008301526111e78184610e86565b905092915050565b600060408201905081810360008301526112098185610ebf565b90506112186020830184611144565b9392505050565b6000602082019050818103600083015261123881610ef8565b9050919050565b6000602082019050818103600083015261125881610f38565b9050919050565b6000602082019050818103600083015261127881610f78565b9050919050565b6000602082019050818103600083015261129881610fb8565b9050919050565b600060208201905081810360008301526112b88161101e565b9050919050565b600060208201905081810360008301526112d88161105e565b9050919050565b600060208201905081810360008301526112f8816110c4565b9050919050565b6000602082019050818103600083015261131881611104565b9050919050565b60006020820190506113346000830184611144565b92915050565b600060808201905061134f6000830187611144565b61135c6020830186610e2f565b6113696040830185610e20565b6113766060830184611144565b95945050505050565b600081519050919050565b600081519050919050565b600081519050919050565b600082825260208201905092915050565b600082825260208201905092915050565b60006113cd826113f3565b9050919050565b60008115159050919050565b60008190506113ee82611473565b919050565b600073ffffffffffffffffffffffffffffffffffffffff82169050919050565b6000819050919050565b6000611428826113e0565b9050919050565b60005b8381101561144d578082015181840152602081019050611432565b8381111561145c576000848401525b50505050565b6000601f19601f8301169050919050565b6004811061147d57fe5b50565b611489816113c2565b811461149457600080fd5b50565b6114a081611413565b81146114ab57600080fd5b5056fea365627a7a72315820867890526404eff97096965dbca6601979b910451cd0a1ad571615e40ad40bc36c6578706572696d656e74616cf564736f6c63430005100040",
  "source": "pragma solidity >= 0.5.5;\npragma experimental ABIEncoderV2;\n\ncontract Ballot {\n\n    struct Voter {\n        uint weight;\n        bool voted;\n        address delegate;\n        uint vote;\n    }\n\n    struct Proposal {\n        string name; \n        uint voteCount;\n    }\n\n    string public description;\n    uint public startDate;\n    uint public endDate;\n    //bytes[] public attachedDocs;\n    bytes public attachedDoc;\n    address public chairperson;\n    mapping(address => Voter) public voters;\n    mapping(uint => Proposal) public proposals;\n    uint public proposalsCount;\n\n    enum State{Init, Started, Ended, Closed}\n    State public state;\n    \n    constructor(\n        string[] memory _proposalNames, \n        string memory _description, \n        bytes memory _attachedDoc, \n        uint _startDate, \n        uint _endDate\n    ) public {\n        chairperson = tx.origin;\n        voters[chairperson].weight = 1;\n        description = _description;\n        startDate = _startDate;\n        endDate = _endDate;\n        \n        attachedDoc = _attachedDoc;\n        \n\n        for (uint i = 0; i < _proposalNames.length; i++) {\n            proposalsCount++;\n            \n            proposals[proposalsCount] = Proposal({\n                name: _proposalNames[i],\n                voteCount: 0\n            });\n        }\n\n        // for(uint i = 0; i < _attachedDocs.length; i++){\n        //     attachedDocs.push(_attachedDocs[i]);\n        // }\n    }\n\n    function giveRightToVote(address voter) public {\n        require(msg.sender == chairperson,\"Only chairperson can give right to vote.\");\n        require(!voters[voter].voted,\"The voter already voted.\");\n        require(voters[voter].weight == 0);\n        voters[voter].weight = 1;\n    }\n\n    function delegate(address to) public {\n        Voter storage sender = voters[msg.sender];\n        require(!sender.voted, \"You already voted.\");\n\n        require(to != msg.sender, \"Self-delegation is disallowed.\");\n        while (voters[to].delegate != address(0)) {\n            to = voters[to].delegate;\n            require(to != msg.sender, \"Found loop in delegation.\");\n        }\n        \n        sender.voted = true;\n        sender.delegate = to;\n        Voter storage delegate_ = voters[to];\n        if (delegate_.voted) {\n            proposals[delegate_.vote].voteCount += sender.weight;\n        } else {\n            delegate_.weight += sender.weight;\n        }\n    }\n\n    function vote(uint proposal) public {\n        Voter storage sender = voters[msg.sender];\n        require(sender.weight != 0, \"Has no right to vote\");\n        require(!sender.voted, \"Already voted.\");\n        sender.voted = true;\n        sender.vote = proposal;\n        proposals[proposal].voteCount += sender.weight;\n    }\n\n    function winningProposal() public view\n            returns (uint winningProposal_)\n    {\n        uint winningVoteCount = 0;\n        for (uint p = 0; p <= proposalsCount; p++) {\n            if (proposals[p].voteCount > winningVoteCount) {\n                winningVoteCount = proposals[p].voteCount;\n                winningProposal_ = p;\n            }\n        }\n    }\n\n    function winnerName() public view\n            returns (string memory winnerName_)\n    {\n        winnerName_ = proposals[winningProposal()].name;\n    }\n\n    function close() public {\n        require(msg.sender == chairperson, \"You are not authorized to carry this action\");\n        state = State.Closed;\n    }\n\n    // function getAttachedDocuments() public view returns(bytes[] memory){\n    //     return attachedDocs;\n    // }\n}",
  "sourcePath": "/home/anthler/Desktop/SMART CONTRACTS/ballot-dapp/contracts/Ballot.sol",
  "compiler": {
    "name": "solc",
    "version": "0.5.16+commit.9c3226ce.Emscripten.clang"
  },
  "schemaVersion": "3.2.0",
  "updatedAt": "2020-12-18T10:02:58.831Z",
  "networkType": "ethereum",
  "devdoc": {
    "methods": {}
  },
  "userdoc": {
    "methods": {}
  }
}