{
  "contractName": "BallotFactory",
  "abi": [
    {
      "inputs": [],
      "payable": false,
      "stateMutability": "nonpayable",
      "type": "constructor"
    },
    {
      "constant": true,
      "inputs": [
        {
          "internalType": "uint256",
          "name": "",
          "type": "uint256"
        }
      ],
      "name": "elections",
      "outputs": [
        {
          "internalType": "contract Ballot",
          "name": "",
          "type": "address"
        }
      ],
      "payable": false,
      "stateMutability": "view",
      "type": "function"
    },
    {
      "constant": true,
      "inputs": [],
      "name": "superAdmin",
      "outputs": [
        {
          "internalType": "address",
          "name": "",
          "type": "address"
        }
      ],
      "payable": false,
      "stateMutability": "view",
      "type": "function"
    },
    {
      "constant": false,
      "inputs": [
        {
          "internalType": "string[]",
          "name": "_proposalNames",
          "type": "string[]"
        },
        {
          "internalType": "string",
          "name": "_description",
          "type": "string"
        },
        {
          "internalType": "bytes",
          "name": "_attachedDoc",
          "type": "bytes"
        },
        {
          "internalType": "uint256",
          "name": "startDate",
          "type": "uint256"
        },
        {
          "internalType": "uint256",
          "name": "endDate",
          "type": "uint256"
        }
      ],
      "name": "createElection",
      "outputs": [],
      "payable": false,
      "stateMutability": "nonpayable",
      "type": "function"
    },
    {
      "constant": true,
      "inputs": [],
      "name": "getCount",
      "outputs": [
        {
          "internalType": "uint256",
          "name": "",
          "type": "uint256"
        }
      ],
      "payable": false,
      "stateMutability": "view",
      "type": "function"
    },
    {
      "constant": true,
      "inputs": [],
      "name": "getAllElections",
      "outputs": [
        {
          "internalType": "contract Ballot[]",
          "name": "_elections",
          "type": "address[]"
        }
      ],
      "payable": false,
      "stateMutability": "view",
      "type": "function"
    },
    {
      "constant": false,
      "inputs": [
        {
          "internalType": "address",
          "name": "_proposer",
          "type": "address"
        }
      ],
      "name": "addNewProposer",
      "outputs": [],
      "payable": false,
      "stateMutability": "nonpayable",
      "type": "function"
    },
    {
      "constant": false,
      "inputs": [
        {
          "internalType": "address",
          "name": "_proposer",
          "type": "address"
        }
      ],
      "name": "deleteProposer",
      "outputs": [],
      "payable": false,
      "stateMutability": "nonpayable",
      "type": "function"
    }
  ],
  "bytecode": "0x608060405234801561001057600080fd5b5033600160006101000a81548173ffffffffffffffffffffffffffffffffffffffff021916908373ffffffffffffffffffffffffffffffffffffffff160217905550612a0e806100616000396000f3fe60806040523480156200001157600080fd5b5060043610620000885760003560e01c80636f2d1bcb11620000635780636f2d1bcb14620001055780637fd5f2681462000125578063a87d942c1462000147578063bb898d6a14620001695762000088565b80631216e488146200008d57806329575f6a14620000ad5780635e6fef0114620000cf575b600080fd5b620000ab6004803603620000a59190810190620006cf565b62000189565b005b620000b76200023f565b604051620000c6919062000a16565b60405180910390f35b620000ed6004803603620000e79190810190620007c8565b62000265565b604051620000fc919062000ac9565b60405180910390f35b6200012360048036036200011d9190810190620006cf565b620002a2565b005b6200012f62000358565b6040516200013e919062000a33565b60405180910390f35b62000151620003e8565b60405162000160919062000ae6565b60405180910390f35b620001876004803603620001819190810190620006fb565b620003f4565b005b600160009054906101000a900473ffffffffffffffffffffffffffffffffffffffff1673ffffffffffffffffffffffffffffffffffffffff163373ffffffffffffffffffffffffffffffffffffffff1614620001e457600080fd5b6001600260008373ffffffffffffffffffffffffffffffffffffffff1673ffffffffffffffffffffffffffffffffffffffff16815260200190815260200160002060006101000a81548160ff02191690831515021790555050565b600160009054906101000a900473ffffffffffffffffffffffffffffffffffffffff1681565b600081815481106200027357fe5b906000526020600020016000915054906101000a900473ffffffffffffffffffffffffffffffffffffffff1681565b600160009054906101000a900473ffffffffffffffffffffffffffffffffffffffff1673ffffffffffffffffffffffffffffffffffffffff163373ffffffffffffffffffffffffffffffffffffffff1614620002fd57600080fd5b6000600260008373ffffffffffffffffffffffffffffffffffffffff1673ffffffffffffffffffffffffffffffffffffffff16815260200190815260200160002060006101000a81548160ff02191690831515021790555050565b60606000805480602002602001604051908101604052809291908181526020018280548015620003de57602002820191906000526020600020905b8160009054906101000a900473ffffffffffffffffffffffffffffffffffffffff1673ffffffffffffffffffffffffffffffffffffffff168152602001906001019080831162000393575b5050505050905090565b60008080549050905090565b600160009054906101000a900473ffffffffffffffffffffffffffffffffffffffff1673ffffffffffffffffffffffffffffffffffffffff163373ffffffffffffffffffffffffffffffffffffffff16146200044f57600080fd5b60008585858585604051620004649062000502565b6200047495949392919062000a57565b604051809103906000f08015801562000491573d6000803e3d6000fd5b50905060008190806001815401808255809150509060018203906000526020600020016000909192909190916101000a81548173ffffffffffffffffffffffffffffffffffffffff021916908373ffffffffffffffffffffffffffffffffffffffff16021790555050505050505050565b611c348062000d9883390190565b600081359050620005218162000d63565b92915050565b600082601f8301126200053957600080fd5b8135620005506200054a8262000b31565b62000b03565b9150818183526020840193506020810190508360005b838110156200059a57813586016200057f888262000600565b84526020840193506020830192505060018101905062000566565b5050505092915050565b600082601f830112620005b657600080fd5b8135620005cd620005c78262000b5a565b62000b03565b91508082526020830160208301858383011115620005ea57600080fd5b620005f783828462000d0d565b50505092915050565b600082601f8301126200061257600080fd5b813562000629620006238262000b87565b62000b03565b915080825260208301602083018583830111156200064657600080fd5b6200065383828462000d0d565b50505092915050565b600082601f8301126200066e57600080fd5b8135620006856200067f8262000bb4565b62000b03565b91508082526020830160208301858383011115620006a257600080fd5b620006af83828462000d0d565b50505092915050565b600081359050620006c98162000d7d565b92915050565b600060208284031215620006e257600080fd5b6000620006f28482850162000510565b91505092915050565b600080600080600060a086880312156200071457600080fd5b600086013567ffffffffffffffff8111156200072f57600080fd5b6200073d8882890162000527565b955050602086013567ffffffffffffffff8111156200075b57600080fd5b62000769888289016200065c565b945050604086013567ffffffffffffffff8111156200078757600080fd5b6200079588828901620005a4565b9350506060620007a888828901620006b8565b9250506080620007bb88828901620006b8565b9150509295509295909350565b600060208284031215620007db57600080fd5b6000620007eb84828501620006b8565b91505092915050565b600062000802838362000961565b60208301905092915050565b60006200081c8383620009c4565b905092915050565b6200082f8162000ca7565b82525050565b6000620008428262000c01565b6200084e818562000c52565b93506200085b8362000be1565b8060005b8381101562000892578151620008768882620007f4565b9750620008838362000c38565b9250506001810190506200085f565b5085935050505092915050565b6000620008ac8262000c0c565b620008b8818562000c63565b935083602082028501620008cc8562000bf1565b8060005b858110156200090e5784840389528151620008ec85826200080e565b9450620008f98362000c45565b925060208a01995050600181019050620008d0565b50829750879550505050505092915050565b60006200092d8262000c17565b62000939818562000c74565b93506200094b81856020860162000d1c565b620009568162000d52565b840191505092915050565b6200096c8162000ce5565b82525050565b6200097d8162000ce5565b82525050565b6000620009908262000c2d565b6200099c818562000c96565b9350620009ae81856020860162000d1c565b620009b98162000d52565b840191505092915050565b6000620009d18262000c22565b620009dd818562000c85565b9350620009ef81856020860162000d1c565b620009fa8162000d52565b840191505092915050565b62000a108162000cdb565b82525050565b600060208201905062000a2d600083018462000824565b92915050565b6000602082019050818103600083015262000a4f818462000835565b905092915050565b600060a082019050818103600083015262000a7381886200089f565b9050818103602083015262000a89818762000983565b9050818103604083015262000a9f818662000920565b905062000ab0606083018562000a05565b62000abf608083018462000a05565b9695505050505050565b600060208201905062000ae0600083018462000972565b92915050565b600060208201905062000afd600083018462000a05565b92915050565b6000604051905081810181811067ffffffffffffffff8211171562000b2757600080fd5b8060405250919050565b600067ffffffffffffffff82111562000b4957600080fd5b602082029050602081019050919050565b600067ffffffffffffffff82111562000b7257600080fd5b601f19601f8301169050602081019050919050565b600067ffffffffffffffff82111562000b9f57600080fd5b601f19601f8301169050602081019050919050565b600067ffffffffffffffff82111562000bcc57600080fd5b601f19601f8301169050602081019050919050565b6000819050602082019050919050565b6000819050602082019050919050565b600081519050919050565b600081519050919050565b600081519050919050565b600081519050919050565b600081519050919050565b6000602082019050919050565b6000602082019050919050565b600082825260208201905092915050565b600082825260208201905092915050565b600082825260208201905092915050565b600082825260208201905092915050565b600082825260208201905092915050565b600062000cb48262000cbb565b9050919050565b600073ffffffffffffffffffffffffffffffffffffffff82169050919050565b6000819050919050565b600062000cf28262000cf9565b9050919050565b600062000d068262000cbb565b9050919050565b82818337600083830152505050565b60005b8381101562000d3c57808201518184015260208101905062000d1f565b8381111562000d4c576000848401525b50505050565b6000601f19601f8301169050919050565b62000d6e8162000ca7565b811462000d7a57600080fd5b50565b62000d888162000cdb565b811462000d9457600080fd5b5056fe60806040523480156200001157600080fd5b5060405162001c3438038062001c3483398181016040526200003791908101906200052e565b32600460006101000a81548173ffffffffffffffffffffffffffffffffffffffff021916908373ffffffffffffffffffffffffffffffffffffffff160217905550600160056000600460009054906101000a900473ffffffffffffffffffffffffffffffffffffffff1673ffffffffffffffffffffffffffffffffffffffff1673ffffffffffffffffffffffffffffffffffffffff168152602001908152602001600020600001819055508360009080519060200190620000fa929190620001c9565b50816001819055508060028190555082600390805190602001906200012192919062000250565b5060008090505b8551811015620001bd5760076000815480929190600101919050555060405180604001604052808783815181106200015c57fe5b6020026020010151815260200160008152506006600060075481526020019081526020016000206000820151816000019080519060200190620001a1929190620002d7565b5060208201518160010155905050808060010191505062000128565b50505050505062000733565b828054600181600116156101000203166002900490600052602060002090601f016020900481019282601f106200020c57805160ff19168380011785556200023d565b828001600101855582156200023d579182015b828111156200023c5782518255916020019190600101906200021f565b5b5090506200024c91906200035e565b5090565b828054600181600116156101000203166002900490600052602060002090601f016020900481019282601f106200029357805160ff1916838001178555620002c4565b82800160010185558215620002c4579182015b82811115620002c3578251825591602001919060010190620002a6565b5b509050620002d391906200035e565b5090565b828054600181600116156101000203166002900490600052602060002090601f016020900481019282601f106200031a57805160ff19168380011785556200034b565b828001600101855582156200034b579182015b828111156200034a5782518255916020019190600101906200032d565b5b5090506200035a91906200035e565b5090565b6200038391905b808211156200037f57600081600090555060010162000365565b5090565b90565b600082601f8301126200039857600080fd5b8151620003af620003a98262000629565b620005fb565b9150818183526020840193506020810190508360005b83811015620003f95781518601620003de88826200045f565b845260208401935060208301925050600181019050620003c5565b5050505092915050565b600082601f8301126200041557600080fd5b81516200042c620004268262000652565b620005fb565b915080825260208301602083018583830111156200044957600080fd5b62000456838284620006e3565b50505092915050565b600082601f8301126200047157600080fd5b81516200048862000482826200067f565b620005fb565b91508082526020830160208301858383011115620004a557600080fd5b620004b2838284620006e3565b50505092915050565b600082601f830112620004cd57600080fd5b8151620004e4620004de82620006ac565b620005fb565b915080825260208301602083018583830111156200050157600080fd5b6200050e838284620006e3565b50505092915050565b600081519050620005288162000719565b92915050565b600080600080600060a086880312156200054757600080fd5b600086015167ffffffffffffffff8111156200056257600080fd5b620005708882890162000386565b955050602086015167ffffffffffffffff8111156200058e57600080fd5b6200059c88828901620004bb565b945050604086015167ffffffffffffffff811115620005ba57600080fd5b620005c88882890162000403565b9350506060620005db8882890162000517565b9250506080620005ee8882890162000517565b9150509295509295909350565b6000604051905081810181811067ffffffffffffffff821117156200061f57600080fd5b8060405250919050565b600067ffffffffffffffff8211156200064157600080fd5b602082029050602081019050919050565b600067ffffffffffffffff8211156200066a57600080fd5b601f19601f8301169050602081019050919050565b600067ffffffffffffffff8211156200069757600080fd5b601f19601f8301169050602081019050919050565b600067ffffffffffffffff821115620006c457600080fd5b601f19601f8301169050602081019050919050565b6000819050919050565b60005b8381101562000703578082015181840152602081019050620006e6565b8381111562000713576000848401525b50505050565b6200072481620006d9565b81146200073057600080fd5b50565b6114f180620007436000396000f3fe608060405234801561001057600080fd5b50600436106100f55760003560e01c8063609ff1bd11610097578063a3ec138d11610066578063a3ec138d1461023d578063c19d93fb14610270578063c24a0f8b1461028e578063e2ba53f0146102ac576100f5565b8063609ff1bd146101c75780637284e416146101e55780639bb46155146102035780639e7b8d6114610221576100f5565b80630b97bc86116100d35780630b97bc86146101655780632e4176cf1461018357806343d726d6146101a15780635c19a95c146101ab576100f5565b80630121b93f146100fa578063013cf08b146101165780630a9f46ad14610147575b600080fd5b610114600480360361010f9190810190610df7565b6102ca565b005b610130600480360361012b9190810190610df7565b6103f9565b60405161013e9291906111ef565b60405180910390f35b61014f6104b5565b60405161015c919061131f565b60405180910390f35b61016d6104bb565b60405161017a919061131f565b60405180910390f35b61018b6104c1565b6040516101989190611153565b60405180910390f35b6101a96104e7565b005b6101c560048036036101c09190810190610dce565b61059d565b005b6101cf610918565b6040516101dc919061131f565b60405180910390f35b6101ed61097b565b6040516101fa91906111ab565b60405180910390f35b61020b610a19565b604051610218919061116e565b60405180910390f35b61023b60048036036102369190810190610dce565b610ab7565b005b61025760048036036102529190810190610dce565b610c71565b604051610267949392919061133a565b60405180910390f35b610278610cce565b6040516102859190611190565b60405180910390f35b610296610ce1565b6040516102a3919061131f565b60405180910390f35b6102b4610ce7565b6040516102c191906111cd565b60405180910390f35b6000600560003373ffffffffffffffffffffffffffffffffffffffff1673ffffffffffffffffffffffffffffffffffffffff1681526020019081526020016000209050600081600001541415610355576040517f08c379a000000000000000000000000000000000000000000000000000000000815260040161034c9061121f565b60405180910390fd5b8060010160009054906101000a900460ff16156103a7576040517f08c379a000000000000000000000000000000000000000000000000000000000815260040161039e9061123f565b60405180910390fd5b60018160010160006101000a81548160ff021916908315150217905550818160020181905550806000015460066000848152602001908152602001600020600101600082825401925050819055505050565b6006602052806000526040600020600091509050806000018054600181600116156101000203166002900480601f0160208091040260200160405190810160405280929190818152602001828054600181600116156101000203166002900480156104a55780601f1061047a576101008083540402835291602001916104a5565b820191906000526020600020905b81548152906001019060200180831161048857829003601f168201915b5050505050908060010154905082565b60075481565b60015481565b600460009054906101000a900473ffffffffffffffffffffffffffffffffffffffff1681565b600460009054906101000a900473ffffffffffffffffffffffffffffffffffffffff1673ffffffffffffffffffffffffffffffffffffffff163373ffffffffffffffffffffffffffffffffffffffff1614610577576040517f08c379a000000000000000000000000000000000000000000000000000000000815260040161056e906112bf565b60405180910390fd5b6003600860006101000a81548160ff0219169083600381111561059657fe5b0217905550565b6000600560003373ffffffffffffffffffffffffffffffffffffffff1673ffffffffffffffffffffffffffffffffffffffff16815260200190815260200160002090508060010160009054906101000a900460ff1615610632576040517f08c379a00000000000000000000000000000000000000000000000000000000081526004016106299061125f565b60405180910390fd5b3373ffffffffffffffffffffffffffffffffffffffff168273ffffffffffffffffffffffffffffffffffffffff1614156106a1576040517f08c379a0000000000000000000000000000000000000000000000000000000008152600401610698906112ff565b60405180910390fd5b5b600073ffffffffffffffffffffffffffffffffffffffff16600560008473ffffffffffffffffffffffffffffffffffffffff1673ffffffffffffffffffffffffffffffffffffffff16815260200190815260200160002060010160019054906101000a900473ffffffffffffffffffffffffffffffffffffffff1673ffffffffffffffffffffffffffffffffffffffff161461081157600560008373ffffffffffffffffffffffffffffffffffffffff1673ffffffffffffffffffffffffffffffffffffffff16815260200190815260200160002060010160019054906101000a900473ffffffffffffffffffffffffffffffffffffffff1691503373ffffffffffffffffffffffffffffffffffffffff168273ffffffffffffffffffffffffffffffffffffffff16141561080c576040517f08c379a00000000000000000000000000000000000000000000000000000000081526004016108039061129f565b60405180910390fd5b6106a2565b60018160010160006101000a81548160ff021916908315150217905550818160010160016101000a81548173ffffffffffffffffffffffffffffffffffffffff021916908373ffffffffffffffffffffffffffffffffffffffff1602179055506000600560008473ffffffffffffffffffffffffffffffffffffffff1673ffffffffffffffffffffffffffffffffffffffff16815260200190815260200160002090508060010160009054906101000a900460ff16156108fc578160000154600660008360020154815260200190815260200160002060010160008282540192505081905550610913565b816000015481600001600082825401925050819055505b505050565b6000806000905060008090505b600754811161097657816006600083815260200190815260200160002060010154111561096957600660008281526020019081526020016000206001015491508092505b8080600101915050610925565b505090565b60008054600181600116156101000203166002900480601f016020809104026020016040519081016040528092919081815260200182805460018160011615610100020316600290048015610a115780601f106109e657610100808354040283529160200191610a11565b820191906000526020600020905b8154815290600101906020018083116109f457829003601f168201915b505050505081565b60038054600181600116156101000203166002900480601f016020809104026020016040519081016040528092919081815260200182805460018160011615610100020316600290048015610aaf5780601f10610a8457610100808354040283529160200191610aaf565b820191906000526020600020905b815481529060010190602001808311610a9257829003601f168201915b505050505081565b600460009054906101000a900473ffffffffffffffffffffffffffffffffffffffff1673ffffffffffffffffffffffffffffffffffffffff163373ffffffffffffffffffffffffffffffffffffffff1614610b47576040517f08c379a0000000000000000000000000000000000000000000000000000000008152600401610b3e9061127f565b60405180910390fd5b600560008273ffffffffffffffffffffffffffffffffffffffff1673ffffffffffffffffffffffffffffffffffffffff16815260200190815260200160002060010160009054906101000a900460ff1615610bd7576040517f08c379a0000000000000000000000000000000000000000000000000000000008152600401610bce906112df565b60405180910390fd5b6000600560008373ffffffffffffffffffffffffffffffffffffffff1673ffffffffffffffffffffffffffffffffffffffff1681526020019081526020016000206000015414610c2657600080fd5b6001600560008373ffffffffffffffffffffffffffffffffffffffff1673ffffffffffffffffffffffffffffffffffffffff1681526020019081526020016000206000018190555050565b60056020528060005260406000206000915090508060000154908060010160009054906101000a900460ff16908060010160019054906101000a900473ffffffffffffffffffffffffffffffffffffffff16908060020154905084565b600860009054906101000a900460ff1681565b60025481565b606060066000610cf5610918565b81526020019081526020016000206000018054600181600116156101000203166002900480601f016020809104026020016040519081016040528092919081815260200182805460018160011615610100020316600290048015610d9a5780601f10610d6f57610100808354040283529160200191610d9a565b820191906000526020600020905b815481529060010190602001808311610d7d57829003601f168201915b5050505050905090565b600081359050610db381611480565b92915050565b600081359050610dc881611497565b92915050565b600060208284031215610de057600080fd5b6000610dee84828501610da4565b91505092915050565b600060208284031215610e0957600080fd5b6000610e1784828501610db9565b91505092915050565b610e29816113c2565b82525050565b610e38816113d4565b82525050565b6000610e498261137f565b610e5381856113a0565b9350610e6381856020860161142f565b610e6c81611462565b840191505092915050565b610e808161141d565b82525050565b6000610e9182611395565b610e9b81856113b1565b9350610eab81856020860161142f565b610eb481611462565b840191505092915050565b6000610eca8261138a565b610ed481856113b1565b9350610ee481856020860161142f565b610eed81611462565b840191505092915050565b6000610f056014836113b1565b91507f486173206e6f20726967687420746f20766f74650000000000000000000000006000830152602082019050919050565b6000610f45600e836113b1565b91507f416c726561647920766f7465642e0000000000000000000000000000000000006000830152602082019050919050565b6000610f856012836113b1565b91507f596f7520616c726561647920766f7465642e00000000000000000000000000006000830152602082019050919050565b6000610fc56028836113b1565b91507f4f6e6c79206368616972706572736f6e2063616e20676976652072696768742060008301527f746f20766f74652e0000000000000000000000000000000000000000000000006020830152604082019050919050565b600061102b6019836113b1565b91507f466f756e64206c6f6f7020696e2064656c65676174696f6e2e000000000000006000830152602082019050919050565b600061106b602b836113b1565b91507f596f7520617265206e6f7420617574686f72697a656420746f2063617272792060008301527f7468697320616374696f6e0000000000000000000000000000000000000000006020830152604082019050919050565b60006110d16018836113b1565b91507f54686520766f74657220616c726561647920766f7465642e00000000000000006000830152602082019050919050565b6000611111601e836113b1565b91507f53656c662d64656c65676174696f6e20697320646973616c6c6f7765642e00006000830152602082019050919050565b61114d81611413565b82525050565b60006020820190506111686000830184610e20565b92915050565b600060208201905081810360008301526111888184610e3e565b905092915050565b60006020820190506111a56000830184610e77565b92915050565b600060208201905081810360008301526111c58184610ebf565b905092915050565b600060208201905081810360008301526111e78184610e86565b905092915050565b600060408201905081810360008301526112098185610ebf565b90506112186020830184611144565b9392505050565b6000602082019050818103600083015261123881610ef8565b9050919050565b6000602082019050818103600083015261125881610f38565b9050919050565b6000602082019050818103600083015261127881610f78565b9050919050565b6000602082019050818103600083015261129881610fb8565b9050919050565b600060208201905081810360008301526112b88161101e565b9050919050565b600060208201905081810360008301526112d88161105e565b9050919050565b600060208201905081810360008301526112f8816110c4565b9050919050565b6000602082019050818103600083015261131881611104565b9050919050565b60006020820190506113346000830184611144565b92915050565b600060808201905061134f6000830187611144565b61135c6020830186610e2f565b6113696040830185610e20565b6113766060830184611144565b95945050505050565b600081519050919050565b600081519050919050565b600081519050919050565b600082825260208201905092915050565b600082825260208201905092915050565b60006113cd826113f3565b9050919050565b60008115159050919050565b60008190506113ee82611473565b919050565b600073ffffffffffffffffffffffffffffffffffffffff82169050919050565b6000819050919050565b6000611428826113e0565b9050919050565b60005b8381101561144d578082015181840152602081019050611432565b8381111561145c576000848401525b50505050565b6000601f19601f8301169050919050565b6004811061147d57fe5b50565b611489816113c2565b811461149457600080fd5b50565b6114a081611413565b81146114ab57600080fd5b5056fea365627a7a72315820867890526404eff97096965dbca6601979b910451cd0a1ad571615e40ad40bc36c6578706572696d656e74616cf564736f6c63430005100040a365627a7a72315820cbe33dd77f273d684f24ce62ca80c3274054b09e27f6e8130d1f22f4616cb51f6c6578706572696d656e74616cf564736f6c63430005100040",
  "source": "pragma solidity >= 0.5.5;\npragma experimental ABIEncoderV2;\n\nimport \"./Ballot.sol\";\n\ncontract BallotFactory{\n\n    Ballot[] public elections;\n    address public superAdmin;\n    mapping(address => bool) isValidProposer;\n\n    modifier onlyOwner(){\n        require(msg.sender == superAdmin);\n        _;\n    }\n\n    constructor() public{\n        superAdmin = msg.sender;\n    }\n    struct Proposer{\n        uint id;\n        string name;\n        string desciption;\n    }\n\n    function createElection(\n        string[] memory _proposalNames,\n        string memory _description,\n        bytes memory _attachedDoc, \n        uint startDate,\n        uint endDate\n    ) public onlyOwner(){\n        Ballot ball = new Ballot(_proposalNames, _description,_attachedDoc,startDate,endDate);\n        elections.push(ball);\n    }\n\n    function getCount() public view returns(uint){\n        return elections.length;\n    }\n\n    function getAllElections() public view returns(Ballot[] memory _elections){\n        _elections = elections;\n    }\n\n    function addNewProposer(address _proposer) public onlyOwner(){\n        isValidProposer[_proposer] = true;\n    }\n\n    function deleteProposer(address _proposer) public onlyOwner(){\n        isValidProposer[_proposer] = false;\n    }\n}",
  "sourcePath": "/home/anthler/Desktop/SMART CONTRACTS/ballot-dapp/contracts/Ballotfactory.sol",
  "compiler": {
    "name": "solc",
    "version": "0.5.16+commit.9c3226ce.Emscripten.clang"
  },
  "schemaVersion": "3.2.0",
  "updatedAt": "2020-12-18T10:02:58.824Z",
  "networkType": "ethereum",
  "devdoc": {
    "methods": {}
  },
  "userdoc": {
    "methods": {}
  }
}