{
  "contractName": "Ballot",
  "abi": [
    {
      "inputs": [
        {
          "internalType": "bytes32[]",
          "name": "proposalNames",
          "type": "bytes32[]"
        },
        {
          "internalType": "string",
          "name": "description",
          "type": "string"
        },
        {
          "internalType": "bytes[]",
          "name": "_attachedDocs",
          "type": "bytes[]"
        },
        {
          "internalType": "uint256",
          "name": "startDate",
          "type": "uint256"
        },
        {
          "internalType": "uint256",
          "name": "endDate",
          "type": "uint256"
        }
      ],
      "payable": false,
      "stateMutability": "nonpayable",
      "type": "constructor"
    },
    {
      "constant": true,
      "inputs": [
        {
          "internalType": "uint256",
          "name": "",
          "type": "uint256"
        }
      ],
      "name": "attachedDocs",
      "outputs": [
        {
          "internalType": "bytes",
          "name": "",
          "type": "bytes"
        }
      ],
      "payable": false,
      "stateMutability": "view",
      "type": "function"
    },
    {
      "constant": true,
      "inputs": [],
      "name": "chairperson",
      "outputs": [
        {
          "internalType": "address",
          "name": "",
          "type": "address"
        }
      ],
      "payable": false,
      "stateMutability": "view",
      "type": "function"
    },
    {
      "constant": true,
      "inputs": [],
      "name": "description",
      "outputs": [
        {
          "internalType": "string",
          "name": "",
          "type": "string"
        }
      ],
      "payable": false,
      "stateMutability": "view",
      "type": "function"
    },
    {
      "constant": true,
      "inputs": [],
      "name": "endDate",
      "outputs": [
        {
          "internalType": "uint256",
          "name": "",
          "type": "uint256"
        }
      ],
      "payable": false,
      "stateMutability": "view",
      "type": "function"
    },
    {
      "constant": true,
      "inputs": [
        {
          "internalType": "uint256",
          "name": "",
          "type": "uint256"
        }
      ],
      "name": "proposals",
      "outputs": [
        {
          "internalType": "bytes32",
          "name": "name",
          "type": "bytes32"
        },
        {
          "internalType": "uint256",
          "name": "voteCount",
          "type": "uint256"
        }
      ],
      "payable": false,
      "stateMutability": "view",
      "type": "function"
    },
    {
      "constant": true,
      "inputs": [],
      "name": "startDate",
      "outputs": [
        {
          "internalType": "uint256",
          "name": "",
          "type": "uint256"
        }
      ],
      "payable": false,
      "stateMutability": "view",
      "type": "function"
    },
    {
      "constant": true,
      "inputs": [
        {
          "internalType": "address",
          "name": "",
          "type": "address"
        }
      ],
      "name": "voters",
      "outputs": [
        {
          "internalType": "uint256",
          "name": "weight",
          "type": "uint256"
        },
        {
          "internalType": "bool",
          "name": "voted",
          "type": "bool"
        },
        {
          "internalType": "address",
          "name": "delegate",
          "type": "address"
        },
        {
          "internalType": "uint256",
          "name": "vote",
          "type": "uint256"
        }
      ],
      "payable": false,
      "stateMutability": "view",
      "type": "function"
    },
    {
      "constant": false,
      "inputs": [
        {
          "internalType": "address",
          "name": "voter",
          "type": "address"
        }
      ],
      "name": "giveRightToVote",
      "outputs": [],
      "payable": false,
      "stateMutability": "nonpayable",
      "type": "function"
    },
    {
      "constant": false,
      "inputs": [
        {
          "internalType": "address",
          "name": "to",
          "type": "address"
        }
      ],
      "name": "delegate",
      "outputs": [],
      "payable": false,
      "stateMutability": "nonpayable",
      "type": "function"
    },
    {
      "constant": false,
      "inputs": [
        {
          "internalType": "uint256",
          "name": "proposal",
          "type": "uint256"
        }
      ],
      "name": "vote",
      "outputs": [],
      "payable": false,
      "stateMutability": "nonpayable",
      "type": "function"
    },
    {
      "constant": true,
      "inputs": [],
      "name": "winningProposal",
      "outputs": [
        {
          "internalType": "uint256",
          "name": "winningProposal_",
          "type": "uint256"
        }
      ],
      "payable": false,
      "stateMutability": "view",
      "type": "function"
    },
    {
      "constant": true,
      "inputs": [],
      "name": "winnerName",
      "outputs": [
        {
          "internalType": "bytes32",
          "name": "winnerName_",
          "type": "bytes32"
        }
      ],
      "payable": false,
      "stateMutability": "view",
      "type": "function"
    }
  ],
  "bytecode": "0x60806040523480156200001157600080fd5b50604051620019883803806200198883398181016040526200003791908101906200059d565b33600460006101000a81548173ffffffffffffffffffffffffffffffffffffffff021916908373ffffffffffffffffffffffffffffffffffffffff160217905550600160056000600460009054906101000a900473ffffffffffffffffffffffffffffffffffffffff1673ffffffffffffffffffffffffffffffffffffffff1673ffffffffffffffffffffffffffffffffffffffff1681526020019081526020016000206000018190555060008090505b8351811015620001555760038482815181106200010157fe5b602002602001015190806001815401808255809150509060018203906000526020600020016000909192909190915090805190602001906200014592919062000270565b50508080600101915050620000e8565b5060008090505b8551811015620001e257600660405180604001604052808884815181106200018057fe5b60200260200101518152602001600081525090806001815401808255809150509060018203906000526020600020906002020160009091929091909150600082015181600001556020820151816001015550505080806001019150506200015c565b5060008090505b8351811015620002645760038082815481106200020257fe5b90600052602060002001908060018154018082558091505090600182039060005260206000200160009091929091909150908054600181600116156101000203166002900462000254929190620002f7565b50508080600101915050620001e9565b505050505050620007c2565b828054600181600116156101000203166002900490600052602060002090601f016020900481019282601f10620002b357805160ff1916838001178555620002e4565b82800160010185558215620002e4579182015b82811115620002e3578251825591602001919060010190620002c6565b5b509050620002f3919062000385565b5090565b828054600181600116156101000203166002900490600052602060002090601f016020900481019282601f1062000332578054855562000372565b828001600101855582156200037257600052602060002091601f016020900482015b828111156200037157825482559160010191906001019062000354565b5b50905062000381919062000385565b5090565b620003aa91905b80821115620003a65760008160009055506001016200038c565b5090565b90565b600082601f830112620003bf57600080fd5b8151620003d6620003d08262000698565b6200066a565b91508181835260208401935060208101905083856020840282011115620003fc57600080fd5b60005b83811015620004305781620004158882620004b7565b845260208401935060208301925050600181019050620003ff565b5050505092915050565b600082601f8301126200044c57600080fd5b8151620004636200045d82620006c1565b6200066a565b9150818183526020840193506020810190508360005b83811015620004ad5781518601620004928882620004ce565b84526020840193506020830192505060018101905062000479565b5050505092915050565b600081519050620004c8816200078e565b92915050565b600082601f830112620004e057600080fd5b8151620004f7620004f182620006ea565b6200066a565b915080825260208301602083018583830111156200051457600080fd5b6200052183828462000758565b50505092915050565b600082601f8301126200053c57600080fd5b8151620005536200054d8262000717565b6200066a565b915080825260208301602083018583830111156200057057600080fd5b6200057d83828462000758565b50505092915050565b6000815190506200059781620007a8565b92915050565b600080600080600060a08688031215620005b657600080fd5b600086015167ffffffffffffffff811115620005d157600080fd5b620005df88828901620003ad565b955050602086015167ffffffffffffffff811115620005fd57600080fd5b6200060b888289016200052a565b945050604086015167ffffffffffffffff8111156200062957600080fd5b62000637888289016200043a565b93505060606200064a8882890162000586565b92505060806200065d8882890162000586565b9150509295509295909350565b6000604051905081810181811067ffffffffffffffff821117156200068e57600080fd5b8060405250919050565b600067ffffffffffffffff821115620006b057600080fd5b602082029050602081019050919050565b600067ffffffffffffffff821115620006d957600080fd5b602082029050602081019050919050565b600067ffffffffffffffff8211156200070257600080fd5b601f19601f8301169050602081019050919050565b600067ffffffffffffffff8211156200072f57600080fd5b601f19601f8301169050602081019050919050565b6000819050919050565b6000819050919050565b60005b83811015620007785780820151818401526020810190506200075b565b8381111562000788576000848401525b50505050565b620007998162000744565b8114620007a557600080fd5b50565b620007b3816200074e565b8114620007bf57600080fd5b50565b6111b680620007d26000396000f3fe608060405234801561001057600080fd5b50600436106100b45760003560e01c8063609ff1bd11610071578063609ff1bd1461018e5780637284e416146101ac5780639e7b8d61146101ca578063a3ec138d146101e6578063c24a0f8b14610219578063e2ba53f014610237576100b4565b80630121b93f146100b9578063013cf08b146100d55780630b97bc8614610106578063123579f4146101245780632e4176cf146101545780635c19a95c14610172575b600080fd5b6100d360048036036100ce9190810190610bd7565b610255565b005b6100ef60048036036100ea9190810190610bd7565b61038c565b6040516100fd929190610eca565b60405180910390f35b61010e6103bd565b60405161011b9190611017565b60405180910390f35b61013e60048036036101399190810190610bd7565b6103c3565b60405161014b9190610ef3565b60405180910390f35b61015c61047c565b6040516101699190610e94565b60405180910390f35b61018c60048036036101879190810190610bae565b6104a2565b005b610196610825565b6040516101a39190611017565b60405180910390f35b6101b461089c565b6040516101c19190610f15565b60405180910390f35b6101e460048036036101df9190810190610bae565b61093a565b005b61020060048036036101fb9190810190610bae565b610af4565b6040516102109493929190611032565b60405180910390f35b610221610b51565b60405161022e9190611017565b60405180910390f35b61023f610b57565b60405161024c9190610eaf565b60405180910390f35b6000600560003373ffffffffffffffffffffffffffffffffffffffff1673ffffffffffffffffffffffffffffffffffffffff16815260200190815260200160002090506000816000015414156102e0576040517f08c379a00000000000000000000000000000000000000000000000000000000081526004016102d790610f37565b60405180910390fd5b8060010160009054906101000a900460ff1615610332576040517f08c379a000000000000000000000000000000000000000000000000000000000815260040161032990610f57565b60405180910390fd5b60018160010160006101000a81548160ff02191690831515021790555081816002018190555080600001546006838154811061036a57fe5b9060005260206000209060020201600101600082825401925050819055505050565b6006818154811061039957fe5b90600052602060002090600202016000915090508060000154908060010154905082565b60015481565b600381815481106103d057fe5b906000526020600020016000915090508054600181600116156101000203166002900480601f0160208091040260200160405190810160405280929190818152602001828054600181600116156101000203166002900480156104745780601f1061044957610100808354040283529160200191610474565b820191906000526020600020905b81548152906001019060200180831161045757829003601f168201915b505050505081565b600460009054906101000a900473ffffffffffffffffffffffffffffffffffffffff1681565b6000600560003373ffffffffffffffffffffffffffffffffffffffff1673ffffffffffffffffffffffffffffffffffffffff16815260200190815260200160002090508060010160009054906101000a900460ff1615610537576040517f08c379a000000000000000000000000000000000000000000000000000000000815260040161052e90610f77565b60405180910390fd5b3373ffffffffffffffffffffffffffffffffffffffff168273ffffffffffffffffffffffffffffffffffffffff1614156105a6576040517f08c379a000000000000000000000000000000000000000000000000000000000815260040161059d90610ff7565b60405180910390fd5b5b600073ffffffffffffffffffffffffffffffffffffffff16600560008473ffffffffffffffffffffffffffffffffffffffff1673ffffffffffffffffffffffffffffffffffffffff16815260200190815260200160002060010160019054906101000a900473ffffffffffffffffffffffffffffffffffffffff1673ffffffffffffffffffffffffffffffffffffffff161461071657600560008373ffffffffffffffffffffffffffffffffffffffff1673ffffffffffffffffffffffffffffffffffffffff16815260200190815260200160002060010160019054906101000a900473ffffffffffffffffffffffffffffffffffffffff1691503373ffffffffffffffffffffffffffffffffffffffff168273ffffffffffffffffffffffffffffffffffffffff161415610711576040517f08c379a000000000000000000000000000000000000000000000000000000000815260040161070890610fb7565b60405180910390fd5b6105a7565b60018160010160006101000a81548160ff021916908315150217905550818160010160016101000a81548173ffffffffffffffffffffffffffffffffffffffff021916908373ffffffffffffffffffffffffffffffffffffffff1602179055506000600560008473ffffffffffffffffffffffffffffffffffffffff1673ffffffffffffffffffffffffffffffffffffffff16815260200190815260200160002090508060010160009054906101000a900460ff161561080957816000015460068260020154815481106107e657fe5b906000526020600020906002020160010160008282540192505081905550610820565b816000015481600001600082825401925050819055505b505050565b6000806000905060008090505b60068054905081101561089757816006828154811061084d57fe5b906000526020600020906002020160010154111561088a576006818154811061087257fe5b90600052602060002090600202016001015491508092505b8080600101915050610832565b505090565b60008054600181600116156101000203166002900480601f0160208091040260200160405190810160405280929190818152602001828054600181600116156101000203166002900480156109325780601f1061090757610100808354040283529160200191610932565b820191906000526020600020905b81548152906001019060200180831161091557829003601f168201915b505050505081565b600460009054906101000a900473ffffffffffffffffffffffffffffffffffffffff1673ffffffffffffffffffffffffffffffffffffffff163373ffffffffffffffffffffffffffffffffffffffff16146109ca576040517f08c379a00000000000000000000000000000000000000000000000000000000081526004016109c190610f97565b60405180910390fd5b600560008273ffffffffffffffffffffffffffffffffffffffff1673ffffffffffffffffffffffffffffffffffffffff16815260200190815260200160002060010160009054906101000a900460ff1615610a5a576040517f08c379a0000000000000000000000000000000000000000000000000000000008152600401610a5190610fd7565b60405180910390fd5b6000600560008373ffffffffffffffffffffffffffffffffffffffff1673ffffffffffffffffffffffffffffffffffffffff1681526020019081526020016000206000015414610aa957600080fd5b6001600560008373ffffffffffffffffffffffffffffffffffffffff1673ffffffffffffffffffffffffffffffffffffffff1681526020019081526020016000206000018190555050565b60056020528060005260406000206000915090508060000154908060010160009054906101000a900460ff16908060010160019054906101000a900473ffffffffffffffffffffffffffffffffffffffff16908060020154905084565b60025481565b60006006610b63610825565b81548110610b6d57fe5b906000526020600020906002020160000154905090565b600081359050610b9381611145565b92915050565b600081359050610ba88161115c565b92915050565b600060208284031215610bc057600080fd5b6000610bce84828501610b84565b91505092915050565b600060208284031215610be957600080fd5b6000610bf784828501610b99565b91505092915050565b610c09816110af565b82525050565b610c18816110c1565b82525050565b610c27816110cd565b82525050565b6000610c3882611077565b610c42818561108d565b9350610c52818560208601611101565b610c5b81611134565b840191505092915050565b6000610c7182611082565b610c7b818561109e565b9350610c8b818560208601611101565b610c9481611134565b840191505092915050565b6000610cac60148361109e565b91507f486173206e6f20726967687420746f20766f74650000000000000000000000006000830152602082019050919050565b6000610cec600e8361109e565b91507f416c726561647920766f7465642e0000000000000000000000000000000000006000830152602082019050919050565b6000610d2c60128361109e565b91507f596f7520616c726561647920766f7465642e00000000000000000000000000006000830152602082019050919050565b6000610d6c60288361109e565b91507f4f6e6c79206368616972706572736f6e2063616e20676976652072696768742060008301527f746f20766f74652e0000000000000000000000000000000000000000000000006020830152604082019050919050565b6000610dd260198361109e565b91507f466f756e64206c6f6f7020696e2064656c65676174696f6e2e000000000000006000830152602082019050919050565b6000610e1260188361109e565b91507f54686520766f74657220616c726561647920766f7465642e00000000000000006000830152602082019050919050565b6000610e52601e8361109e565b91507f53656c662d64656c65676174696f6e20697320646973616c6c6f7765642e00006000830152602082019050919050565b610e8e816110f7565b82525050565b6000602082019050610ea96000830184610c00565b92915050565b6000602082019050610ec46000830184610c1e565b92915050565b6000604082019050610edf6000830185610c1e565b610eec6020830184610e85565b9392505050565b60006020820190508181036000830152610f0d8184610c2d565b905092915050565b60006020820190508181036000830152610f2f8184610c66565b905092915050565b60006020820190508181036000830152610f5081610c9f565b9050919050565b60006020820190508181036000830152610f7081610cdf565b9050919050565b60006020820190508181036000830152610f9081610d1f565b9050919050565b60006020820190508181036000830152610fb081610d5f565b9050919050565b60006020820190508181036000830152610fd081610dc5565b9050919050565b60006020820190508181036000830152610ff081610e05565b9050919050565b6000602082019050818103600083015261101081610e45565b9050919050565b600060208201905061102c6000830184610e85565b92915050565b60006080820190506110476000830187610e85565b6110546020830186610c0f565b6110616040830185610c00565b61106e6060830184610e85565b95945050505050565b600081519050919050565b600081519050919050565b600082825260208201905092915050565b600082825260208201905092915050565b60006110ba826110d7565b9050919050565b60008115159050919050565b6000819050919050565b600073ffffffffffffffffffffffffffffffffffffffff82169050919050565b6000819050919050565b60005b8381101561111f578082015181840152602081019050611104565b8381111561112e576000848401525b50505050565b6000601f19601f8301169050919050565b61114e816110af565b811461115957600080fd5b50565b611165816110f7565b811461117057600080fd5b5056fea365627a7a72315820935f5cb1ca378230fc19f1efc318212539832e3b9b405ecf6f0bff68aa42e74b6c6578706572696d656e74616cf564736f6c63430005100040",
  "source": "pragma solidity >= 0.5.5;\npragma experimental ABIEncoderV2;\n\ncontract Ballot {\n\n    struct Voter {\n        uint weight;\n        bool voted;\n        address delegate;\n        uint vote;\n    }\n\n    struct Proposal {\n        bytes32 name; \n        uint voteCount;\n    }\n\n    string public description;\n    uint public startDate;\n    uint public endDate;\n    bytes[] public attachedDocs;\n    address public chairperson;\n    mapping(address => Voter) public voters;\n    Proposal[] public proposals;\n\n\n    constructor(\n        bytes32[] memory proposalNames, \n        string memory description, \n        bytes[] memory _attachedDocs, \n        uint startDate, \n        uint endDate\n    ) public {\n        chairperson = msg.sender;\n        voters[chairperson].weight = 1;\n        for(uint i = 0; i < _attachedDocs.length; i++){\n            attachedDocs.push(_attachedDocs[i]);\n        }\n\n        for (uint i = 0; i < proposalNames.length; i++) {\n            proposals.push(Proposal({\n                name: proposalNames[i],\n                voteCount: 0\n            }));\n        }\n\n        for(uint i = 0; i < _attachedDocs.length; i++){\n            attachedDocs.push(attachedDocs[i]);\n        }\n    }\n\n    function giveRightToVote(address voter) public {\n        require(msg.sender == chairperson,\"Only chairperson can give right to vote.\");\n        require(!voters[voter].voted,\"The voter already voted.\");\n        require(voters[voter].weight == 0);\n        voters[voter].weight = 1;\n    }\n\n    function delegate(address to) public {\n        Voter storage sender = voters[msg.sender];\n        require(!sender.voted, \"You already voted.\");\n\n        require(to != msg.sender, \"Self-delegation is disallowed.\");\n        while (voters[to].delegate != address(0)) {\n            to = voters[to].delegate;\n            require(to != msg.sender, \"Found loop in delegation.\");\n        }\n        \n        sender.voted = true;\n        sender.delegate = to;\n        Voter storage delegate_ = voters[to];\n        if (delegate_.voted) {\n            proposals[delegate_.vote].voteCount += sender.weight;\n        } else {\n            delegate_.weight += sender.weight;\n        }\n    }\n\n    function vote(uint proposal) public {\n        Voter storage sender = voters[msg.sender];\n        require(sender.weight != 0, \"Has no right to vote\");\n        require(!sender.voted, \"Already voted.\");\n        sender.voted = true;\n        sender.vote = proposal;\n        proposals[proposal].voteCount += sender.weight;\n    }\n\n    function winningProposal() public view\n            returns (uint winningProposal_)\n    {\n        uint winningVoteCount = 0;\n        for (uint p = 0; p < proposals.length; p++) {\n            if (proposals[p].voteCount > winningVoteCount) {\n                winningVoteCount = proposals[p].voteCount;\n                winningProposal_ = p;\n            }\n        }\n    }\n\n    function winnerName() public view\n            returns (bytes32 winnerName_)\n    {\n        winnerName_ = proposals[winningProposal()].name;\n    }\n}",
  "sourcePath": "/home/anthler/Desktop/SMART CONTRACTS/ballot-dapp/contracts/Ballot.sol",
  "compiler": {
    "name": "solc",
    "version": "0.5.16+commit.9c3226ce.Emscripten.clang"
  },
  "schemaVersion": "3.2.0",
  "updatedAt": "2020-11-25T13:14:28.531Z",
  "devdoc": {
    "methods": {}
  },
  "userdoc": {
    "methods": {}
  }
}